{
  "contractName": "DeviceSpawner",
  "abi": [
    {
      "inputs": [
        {
          "name": "_input_address",
          "type": "address"
        }
      ],
      "payable": true,
      "stateMutability": "payable",
      "type": "constructor"
    },
    {
      "anonymous": false,
      "inputs": [
        {
          "indexed": false,
          "name": "_rawbot_address",
          "type": "address"
        },
        {
          "indexed": false,
          "name": "_sender",
          "type": "address"
        },
        {
          "indexed": false,
          "name": "_contract",
          "type": "address"
        }
      ],
      "name": "DeviceAdd",
      "type": "event"
    },
    {
      "constant": true,
      "inputs": [],
      "name": "getRawbotAddress",
      "outputs": [
        {
          "name": "_rawbot_address",
          "type": "address"
        }
      ],
      "payable": false,
      "stateMutability": "view",
      "type": "function"
    },
    {
      "constant": false,
      "inputs": [
        {
          "name": "_manager",
          "type": "address"
        },
        {
          "name": "_device_serial_number",
          "type": "bytes32"
        },
        {
          "name": "_device_name",
          "type": "bytes32"
        },
        {
          "name": "_owner_name",
          "type": "bytes32"
        },
        {
          "name": "_country",
          "type": "bytes32"
        },
        {
          "name": "_location",
          "type": "bytes32"
        },
        {
          "name": "_latitude",
          "type": "uint256"
        },
        {
          "name": "_longitude",
          "type": "uint256"
        },
        {
          "name": "_altitude",
          "type": "uint256"
        },
        {
          "name": "_accuracy",
          "type": "uint256"
        }
      ],
      "name": "addDevice",
      "outputs": [
        {
          "name": "__spawned_device",
          "type": "address"
        }
      ],
      "payable": false,
      "stateMutability": "nonpayable",
      "type": "function"
    },
    {
      "constant": true,
      "inputs": [],
      "name": "getTotalDevices",
      "outputs": [
        {
          "name": "__total_devices",
          "type": "uint256"
        }
      ],
      "payable": false,
      "stateMutability": "view",
      "type": "function"
    },
    {
      "constant": true,
      "inputs": [],
      "name": "getTotalMerchants",
      "outputs": [
        {
          "name": "__total_merchants",
          "type": "uint256"
        }
      ],
      "payable": false,
      "stateMutability": "view",
      "type": "function"
    },
    {
      "constant": true,
      "inputs": [
        {
          "name": "_address",
          "type": "address"
        }
      ],
      "name": "getTotalDevicesOf",
      "outputs": [
        {
          "name": "__total_devices_of",
          "type": "uint256"
        }
      ],
      "payable": false,
      "stateMutability": "view",
      "type": "function"
    },
    {
      "constant": true,
      "inputs": [
        {
          "name": "_device_index",
          "type": "uint256"
        }
      ],
      "name": "getDevice",
      "outputs": [
        {
          "name": "__device_address",
          "type": "address"
        }
      ],
      "payable": false,
      "stateMutability": "view",
      "type": "function"
    },
    {
      "constant": true,
      "inputs": [
        {
          "name": "_merchant_address",
          "type": "address"
        },
        {
          "name": "_device_index",
          "type": "uint256"
        }
      ],
      "name": "getDeviceAddressOf",
      "outputs": [
        {
          "name": "__device_address",
          "type": "address"
        }
      ],
      "payable": false,
      "stateMutability": "view",
      "type": "function"
    },
    {
      "constant": true,
      "inputs": [
        {
          "name": "_address",
          "type": "address"
        }
      ],
      "name": "hasAccess",
      "outputs": [
        {
          "name": "__allowed",
          "type": "bool"
        }
      ],
      "payable": false,
      "stateMutability": "view",
      "type": "function"
    },
    {
      "constant": true,
      "inputs": [],
      "name": "getContractBalance",
      "outputs": [
        {
          "name": "__balance",
          "type": "uint256"
        }
      ],
      "payable": false,
      "stateMutability": "view",
      "type": "function"
    },
    {
      "constant": true,
      "inputs": [
        {
          "name": "device_address",
          "type": "address"
        }
      ],
      "name": "getDeviceOwner",
      "outputs": [
        {
          "name": "__device_owner",
          "type": "address"
        }
      ],
      "payable": false,
      "stateMutability": "view",
      "type": "function"
    },
    {
      "constant": true,
      "inputs": [
        {
          "name": "device_address",
          "type": "address"
        }
      ],
      "name": "getDeviceManager",
      "outputs": [
        {
          "name": "__device_manager",
          "type": "address"
        }
      ],
      "payable": false,
      "stateMutability": "view",
      "type": "function"
    },
    {
      "constant": true,
      "inputs": [
        {
          "name": "device_address",
          "type": "address"
        }
      ],
      "name": "getDeviceBalance",
      "outputs": [
        {
          "name": "__device_balance",
          "type": "uint256"
        }
      ],
      "payable": false,
      "stateMutability": "view",
      "type": "function"
    },
    {
      "constant": false,
      "inputs": [
        {
          "name": "device_address",
          "type": "address"
        },
        {
          "name": "device_manager",
          "type": "address"
        }
      ],
      "name": "setDeviceManager",
      "outputs": [
        {
          "name": "success",
          "type": "bool"
        }
      ],
      "payable": false,
      "stateMutability": "nonpayable",
      "type": "function"
    },
    {
      "constant": true,
      "inputs": [
        {
          "name": "device_address",
          "type": "address"
        }
      ],
      "name": "getDeviceInformation",
      "outputs": [
        {
          "name": "serial_number",
          "type": "bytes32"
        },
        {
          "name": "name",
          "type": "bytes32"
        },
        {
          "name": "owner",
          "type": "address"
        },
        {
          "name": "owner_name",
          "type": "bytes32"
        },
        {
          "name": "country",
          "type": "bytes32"
        },
        {
          "name": "location",
          "type": "bytes32"
        },
        {
          "name": "latitude",
          "type": "uint256"
        },
        {
          "name": "longitude",
          "type": "uint256"
        },
        {
          "name": "altitude",
          "type": "uint256"
        },
        {
          "name": "accuracy",
          "type": "uint256"
        }
      ],
      "payable": false,
      "stateMutability": "view",
      "type": "function"
    }
  ],
  "bytecode": "0x608060405260006004556000600555604051602080615cab83398101806040528101908080519060200190929190505050806000806101000a81548173ffffffffffffffffffffffffffffffffffffffff021916908373ffffffffffffffffffffffffffffffffffffffff16021790555050615c2b806100806000396000f3006080604052600436106100d0576000357c0100000000000000000000000000000000000000000000000000000000900463ffffffff16806309f110b1146100d55780632483142e14610142578063459b23a41461019957806350b371331461021c5780635536e7b0146102735780635fd94eec1461035d5780636f9fb98a146103b45780637f0fcb10146103df5780637f6164881461045a57806395a078e8146104855780639fa582d2146104e0578063c0043291146105d1578063d643d8af1461065e578063dc61d161146106e1575b600080fd5b3480156100e157600080fd5b506101006004803603810190808035906020019092919050505061070c565b604051808273ffffffffffffffffffffffffffffffffffffffff1673ffffffffffffffffffffffffffffffffffffffff16815260200191505060405180910390f35b34801561014e57600080fd5b50610157610749565b604051808273ffffffffffffffffffffffffffffffffffffffff1673ffffffffffffffffffffffffffffffffffffffff16815260200191505060405180910390f35b3480156101a557600080fd5b506101da600480360381019080803573ffffffffffffffffffffffffffffffffffffffff169060200190929190505050610772565b604051808273ffffffffffffffffffffffffffffffffffffffff1673ffffffffffffffffffffffffffffffffffffffff16815260200191505060405180910390f35b34801561022857600080fd5b5061025d600480360381019080803573ffffffffffffffffffffffffffffffffffffffff1690602001909291905050506107de565b6040518082815260200191505060405180910390f35b34801561027f57600080fd5b506102b4600480360381019080803573ffffffffffffffffffffffffffffffffffffffff1690602001909291905050506107ff565b604051808b600019166000191681526020018a600019166000191681526020018973ffffffffffffffffffffffffffffffffffffffff1673ffffffffffffffffffffffffffffffffffffffff1681526020018860001916600019168152602001876000191660001916815260200186600019166000191681526020018581526020018481526020018381526020018281526020019a505050505050505050505060405180910390f35b34801561036957600080fd5b5061039e600480360381019080803573ffffffffffffffffffffffffffffffffffffffff1690602001909291905050506108c5565b6040518082815260200191505060405180910390f35b3480156103c057600080fd5b506103c961090e565b6040518082815260200191505060405180910390f35b3480156103eb57600080fd5b50610440600480360381019080803573ffffffffffffffffffffffffffffffffffffffff169060200190929190803573ffffffffffffffffffffffffffffffffffffffff16906020019092919050505061092d565b604051808215151515815260200191505060405180910390f35b34801561046657600080fd5b5061046f610a65565b6040518082815260200191505060405180910390f35b34801561049157600080fd5b506104c6600480360381019080803573ffffffffffffffffffffffffffffffffffffffff169060200190929190505050610a6f565b604051808215151515815260200191505060405180910390f35b3480156104ec57600080fd5b5061058f600480360381019080803573ffffffffffffffffffffffffffffffffffffffff1690602001909291908035600019169060200190929190803560001916906020019092919080356000191690602001909291908035600019169060200190929190803560001916906020019092919080359060200190929190803590602001909291908035906020019092919080359060200190929190505050610ac8565b604051808273ffffffffffffffffffffffffffffffffffffffff1673ffffffffffffffffffffffffffffffffffffffff16815260200191505060405180910390f35b3480156105dd57600080fd5b5061061c600480360381019080803573ffffffffffffffffffffffffffffffffffffffff16906020019092919080359060200190929190505050611128565b604051808273ffffffffffffffffffffffffffffffffffffffff1673ffffffffffffffffffffffffffffffffffffffff16815260200191505060405180910390f35b34801561066a57600080fd5b5061069f600480360381019080803573ffffffffffffffffffffffffffffffffffffffff1690602001909291905050506111a6565b604051808273ffffffffffffffffffffffffffffffffffffffff1673ffffffffffffffffffffffffffffffffffffffff16815260200191505060405180910390f35b3480156106ed57600080fd5b506106f6611212565b6040518082815260200191505060405180910390f35b60006001600083815260200190815260200160002060009054906101000a900473ffffffffffffffffffffffffffffffffffffffff169050919050565b60008060009054906101000a900473ffffffffffffffffffffffffffffffffffffffff16905090565b6000600760008373ffffffffffffffffffffffffffffffffffffffff1673ffffffffffffffffffffffffffffffffffffffff16815260200190815260200160002060020160009054906101000a900473ffffffffffffffffffffffffffffffffffffffff169050919050565b60008173ffffffffffffffffffffffffffffffffffffffff16319050919050565b6000806000806000806000806000806000600760008d73ffffffffffffffffffffffffffffffffffffffff1673ffffffffffffffffffffffffffffffffffffffff1681526020019081526020016000209050806000015481600101548260020160009054906101000a900473ffffffffffffffffffffffffffffffffffffffff1683600301548460050154856006015486600701548760080154886009015489600a01549a509a509a509a509a509a509a509a509a509a50509193959799509193959799565b6000600860008373ffffffffffffffffffffffffffffffffffffffff1673ffffffffffffffffffffffffffffffffffffffff168152602001908152602001600020549050919050565b60003073ffffffffffffffffffffffffffffffffffffffff1631905090565b60003373ffffffffffffffffffffffffffffffffffffffff1661094f84610772565b73ffffffffffffffffffffffffffffffffffffffff161415156109da576040517f08c379a000000000000000000000000000000000000000000000000000000000815260040180806020018281038252601b8152602001807f4d73672073656e6465722069736e277420746865206f776e65722e000000000081525060200191505060405180910390fd5b81600760008573ffffffffffffffffffffffffffffffffffffffff1673ffffffffffffffffffffffffffffffffffffffff16815260200190815260200160002060040160006101000a81548173ffffffffffffffffffffffffffffffffffffffff021916908373ffffffffffffffffffffffffffffffffffffffff1602179055506001905092915050565b6000600554905090565b6000600760008373ffffffffffffffffffffffffffffffffffffffff1673ffffffffffffffffffffffffffffffffffffffff168152602001908152602001600020600b0160009054906101000a900460ff169050919050565b6000806000336000809054906101000a900473ffffffffffffffffffffffffffffffffffffffff16610af861121c565b808373ffffffffffffffffffffffffffffffffffffffff1673ffffffffffffffffffffffffffffffffffffffff1681526020018273ffffffffffffffffffffffffffffffffffffffff1673ffffffffffffffffffffffffffffffffffffffff16815260200192505050604051809103906000f080158015610b7d573d6000803e3d6000fd5b509150610180604051908101604052808d6000191681526020018c6000191681526020013373ffffffffffffffffffffffffffffffffffffffff1681526020018b6000191681526020018e73ffffffffffffffffffffffffffffffffffffffff1681526020018a6000191681526020018960001916815260200188815260200187815260200186815260200185815260200160011515815250600760008473ffffffffffffffffffffffffffffffffffffffff1673ffffffffffffffffffffffffffffffffffffffff168152602001908152602001600020600082015181600001906000191690556020820151816001019060001916905560408201518160020160006101000a81548173ffffffffffffffffffffffffffffffffffffffff021916908373ffffffffffffffffffffffffffffffffffffffff1602179055506060820151816003019060001916905560808201518160040160006101000a81548173ffffffffffffffffffffffffffffffffffffffff021916908373ffffffffffffffffffffffffffffffffffffffff16021790555060a0820151816005019060001916905560c0820151816006019060001916905560e082015181600701556101008201518160080155610120820151816009015561014082015181600a015561016082015181600b0160006101000a81548160ff02191690831515021790555090505060001515600660003373ffffffffffffffffffffffffffffffffffffffff1673ffffffffffffffffffffffffffffffffffffffff16815260200190815260200160002060010160009054906101000a900460ff1615151415610ea0573360026000600554815260200190815260200160002060006101000a81548173ffffffffffffffffffffffffffffffffffffffff021916908373ffffffffffffffffffffffffffffffffffffffff1602179055506001600660003373ffffffffffffffffffffffffffffffffffffffff1673ffffffffffffffffffffffffffffffffffffffff16815260200190815260200160002060010160006101000a81548160ff0219169083151502179055506005600081548092919060010191905055505b600860003373ffffffffffffffffffffffffffffffffffffffff1673ffffffffffffffffffffffffffffffffffffffff16815260200190815260200160002054905081600660003373ffffffffffffffffffffffffffffffffffffffff1673ffffffffffffffffffffffffffffffffffffffff168152602001908152602001600020600001600083815260200190815260200160002060006101000a81548173ffffffffffffffffffffffffffffffffffffffff021916908373ffffffffffffffffffffffffffffffffffffffff1602179055508160016000600454815260200190815260200160002060006101000a81548173ffffffffffffffffffffffffffffffffffffffff021916908373ffffffffffffffffffffffffffffffffffffffff160217905550600460008154809291906001019190505550600860003373ffffffffffffffffffffffffffffffffffffffff1673ffffffffffffffffffffffffffffffffffffffff168152602001908152602001600020600081548092919060010191905055507f7c7193c26bcd4ba8a6720ad03347cbd0330913157590c4efc3e013085ac34dd16000809054906101000a900473ffffffffffffffffffffffffffffffffffffffff163384604051808473ffffffffffffffffffffffffffffffffffffffff1673ffffffffffffffffffffffffffffffffffffffff1681526020018373ffffffffffffffffffffffffffffffffffffffff1673ffffffffffffffffffffffffffffffffffffffff1681526020018273ffffffffffffffffffffffffffffffffffffffff1673ffffffffffffffffffffffffffffffffffffffff168152602001935050505060405180910390a181925050509a9950505050505050505050565b6000600660008473ffffffffffffffffffffffffffffffffffffffff1673ffffffffffffffffffffffffffffffffffffffff168152602001908152602001600020600001600083815260200190815260200160002060009054906101000a900473ffffffffffffffffffffffffffffffffffffffff16905092915050565b6000600760008373ffffffffffffffffffffffffffffffffffffffff1673ffffffffffffffffffffffffffffffffffffffff16815260200190815260200160002060040160009054906101000a900473ffffffffffffffffffffffffffffffffffffffff169050919050565b6000600454905090565b6040516149d38061122d83390190560060806040526000600b556040516040806149d3833981018060405281019080805190602001909291908051906020019092919050505081601060006101000a81548173ffffffffffffffffffffffffffffffffffffffff021916908373ffffffffffffffffffffffffffffffffffffffff16021790555080600560006101000a81548173ffffffffffffffffffffffffffffffffffffffff021916908373ffffffffffffffffffffffffffffffffffffffff16021790555080600660006101000a81548173ffffffffffffffffffffffffffffffffffffffff021916908373ffffffffffffffffffffffffffffffffffffffff16021790555050506148ca806101096000396000f300608060405260043610610132576000357c0100000000000000000000000000000000000000000000000000000000900463ffffffff168062f714ce146101345780630e504933146101995780631a0c8b08146101ea5780632483142e1461024557806327dc297e1461029c5780632b304087146103135780632fbbad61146103c057806338bbfa50146104115780633a178d99146104ce5780637684bcc6146105135780637ed6a8ad146105dd578063917d619a1461061e5780639bd3fc9114610663578063ae73a61e146106ca578063bf38e54514610719578063c2a479ce146107a4578063c783034c14610805578063cab7ca411461084a578063ce9811781461088f578063d57c4f22146108de578063d72c4c651461092d578063df7dfef71461097c578063fcc03293146109c1575b005b34801561014057600080fd5b5061017f60048036038101908080359060200190929190803573ffffffffffffffffffffffffffffffffffffffff1690602001909291905050506109ec565b604051808215151515815260200191505060405180910390f35b3480156101a557600080fd5b506101d060048036038101908080359060200190929190803515159060200190929190505050610bce565b604051808215151515815260200191505060405180910390f35b3480156101f657600080fd5b5061022b600480360381019080803573ffffffffffffffffffffffffffffffffffffffff169060200190929190505050610cca565b604051808215151515815260200191505060405180910390f35b34801561025157600080fd5b5061025a610e1c565b604051808273ffffffffffffffffffffffffffffffffffffffff1673ffffffffffffffffffffffffffffffffffffffff16815260200191505060405180910390f35b3480156102a857600080fd5b506103116004803603810190808035600019169060200190929190803590602001908201803590602001908080601f0160208091040260200160405190810160405280939291908181526020018383808284378201915050505050509192919290505050610e46565b005b34801561031f57600080fd5b506103a6600480360381019080803590602001908201803590602001908080601f016020809104026020016040519081016040528093929190818152602001838380828437820191505050505050919291929080359060200190929190803590602001909291908035151590602001909291908035151590602001909291905050506113a6565b604051808215151515815260200191505060405180910390f35b3480156103cc57600080fd5b506103f7600480360381019080803590602001909291908035151590602001909291905050506116a7565b604051808215151515815260200191505060405180910390f35b34801561041d57600080fd5b506104cc6004803603810190808035600019169060200190929190803590602001908201803590602001908080601f0160208091040260200160405190810160405280939291908181526020018383808284378201915050505050509192919290803590602001908201803590602001908080601f01602080910402602001604051908101604052809392919081815260200183838082843782019150505050505091929192905050506117a3565b005b3480156104da57600080fd5b506104f9600480360381019080803590602001909291905050506117a8565b604051808215151515815260200191505060405180910390f35b34801561051f57600080fd5b5061053e600480360381019080803590602001909291905050506117d5565b60405180806020018681526020018581526020018415151515815260200183151515158152602001828103825287818151815260200191508051906020019080838360005b8381101561059e578082015181840152602081019050610583565b50505050905090810190601f1680156105cb5780820380516001836020036101000a031916815260200191505b50965050505050505060405180910390f35b3480156105e957600080fd5b506106086004803603810190808035906020019092919050505061190f565b6040518082815260200191505060405180910390f35b34801561062a57600080fd5b506106496004803603810190808035906020019092919050505061192c565b604051808215151515815260200191505060405180910390f35b34801561066f57600080fd5b506106b06004803603810190808035906020019092919080359060200190929190803515159060200190929190803515159060200190929190505050611c90565b604051808215151515815260200191505060405180910390f35b3480156106d657600080fd5b506106ff6004803603810190808035906020019092919080359060200190929190505050611dd1565b604051808215151515815260200191505060405180910390f35b34801561072557600080fd5b5061078a60048036038101908080359060200190929190803590602001908201803590602001908080601f0160208091040260200160405190810160405280939291908181526020018383808284378201915050505050509192919290505050612282565b604051808215151515815260200191505060405180910390f35b3480156107b057600080fd5b506107ef600480360381019080803573ffffffffffffffffffffffffffffffffffffffff169060200190929190803590602001909291905050506129c7565b6040518082815260200191505060405180910390f35b34801561081157600080fd5b5061083060048036038101908080359060200190929190505050612a22565b604051808215151515815260200191505060405180910390f35b34801561085657600080fd5b5061087560048036038101908080359060200190929190505050612a79565b604051808215151515815260200191505060405180910390f35b34801561089b57600080fd5b506108c46004803603810190808035906020019092919080359060200190929190505050612d8b565b604051808215151515815260200191505060405180910390f35b3480156108ea57600080fd5b506109136004803603810190808035906020019092919080359060200190929190505050612e74565b604051808215151515815260200191505060405180910390f35b34801561093957600080fd5b506109626004803603810190808035906020019092919080359060200190929190505050613005565b604051808215151515815260200191505060405180910390f35b34801561098857600080fd5b506109a7600480360381019080803590602001909291905050506130f1565b604051808215151515815260200191505060405180910390f35b3480156109cd57600080fd5b506109d66132b9565b6040518082815260200191505060405180910390f35b60003373ffffffffffffffffffffffffffffffffffffffff16601060009054906101000a900473ffffffffffffffffffffffffffffffffffffffff1673ffffffffffffffffffffffffffffffffffffffff16141515610ab3576040517f08c379a000000000000000000000000000000000000000000000000000000000815260040180806020018281038252601a8152602001807f4d73672073656e6465722069736e277420746865206f776e657200000000000081525060200191505060405180910390fd5b600560009054906101000a900473ffffffffffffffffffffffffffffffffffffffff1673ffffffffffffffffffffffffffffffffffffffff1663ac2ce9bc3084866040518463ffffffff167c0100000000000000000000000000000000000000000000000000000000028152600401808473ffffffffffffffffffffffffffffffffffffffff1673ffffffffffffffffffffffffffffffffffffffff1681526020018373ffffffffffffffffffffffffffffffffffffffff1673ffffffffffffffffffffffffffffffffffffffff1681526020018281526020019350505050600060405180830381600087803b158015610bac57600080fd5b505af1158015610bc0573d6000803e3d6000fd5b505050506001905092915050565b60003373ffffffffffffffffffffffffffffffffffffffff16601060009054906101000a900473ffffffffffffffffffffffffffffffffffffffff1673ffffffffffffffffffffffffffffffffffffffff16141515610c95576040517f08c379a000000000000000000000000000000000000000000000000000000000815260040180806020018281038252601a8152602001807f4d73672073656e6465722069736e277420746865206f776e657200000000000081525060200191505060405180910390fd5b81600a600085815260200190815260200160002060006101000a81548160ff0219169083151502179055506001905092915050565b60003373ffffffffffffffffffffffffffffffffffffffff16601060009054906101000a900473ffffffffffffffffffffffffffffffffffffffff1673ffffffffffffffffffffffffffffffffffffffff16141515610d91576040517f08c379a000000000000000000000000000000000000000000000000000000000815260040180806020018281038252601a8152602001807f4d73672073656e6465722069736e277420746865206f776e657200000000000081525060200191505060405180910390fd5b81600560006101000a81548173ffffffffffffffffffffffffffffffffffffffff021916908373ffffffffffffffffffffffffffffffffffffffff16021790555081600660006101000a81548173ffffffffffffffffffffffffffffffffffffffff021916908373ffffffffffffffffffffffffffffffffffffffff16021790555060019050919050565b6000600660009054906101000a900473ffffffffffffffffffffffffffffffffffffffff16905090565b600080600080600080610e576132c3565b73ffffffffffffffffffffffffffffffffffffffff163373ffffffffffffffffffffffffffffffffffffffff16141515610e9057600080fd5b600f6000896000191660001916815260200190815260200160002054955060009450600d600087815260200190815260200160002060020160006001600c60008a81526020019081526020016000205403815260200190815260200160002060000160009054906101000a900473ffffffffffffffffffffffffffffffffffffffff169350600015156009600088815260200190815260200160002060009054906101000a900460ff1615151415610f5057610f4b86613621565b61137d565b60009250600091506000600e60008673ffffffffffffffffffffffffffffffffffffffff1673ffffffffffffffffffffffffffffffffffffffff168152602001908152602001600020600088815260200190815260200160002054111561101b57600e60008573ffffffffffffffffffffffffffffffffffffffff1673ffffffffffffffffffffffffffffffffffffffff1681526020019081526020016000206000878152602001908152602001600020600081548092919060019003919050555060019450600192505b600d600087815260200190815260200160002060010154600560009054906101000a900473ffffffffffffffffffffffffffffffffffffffff1673ffffffffffffffffffffffffffffffffffffffff1663f8b2cb4f866040518263ffffffff167c0100000000000000000000000000000000000000000000000000000000028152600401808273ffffffffffffffffffffffffffffffffffffffff1673ffffffffffffffffffffffffffffffffffffffff168152602001915050602060405180830381600087803b1580156110ef57600080fd5b505af1158015611103573d6000803e3d6000fd5b505050506040513d602081101561111957600080fd5b810190808051906020019092919050505010151561125d57600560009054906101000a900473ffffffffffffffffffffffffffffffffffffffff1673ffffffffffffffffffffffffffffffffffffffff1663ac2ce9bc8530600d60008b8152602001908152602001600020600101546040518463ffffffff167c0100000000000000000000000000000000000000000000000000000000028152600401808473ffffffffffffffffffffffffffffffffffffffff1673ffffffffffffffffffffffffffffffffffffffff1681526020018373ffffffffffffffffffffffffffffffffffffffff1673ffffffffffffffffffffffffffffffffffffffff1681526020018281526020019350505050600060405180830381600087803b15801561124057600080fd5b505af1158015611254573d6000803e3d6000fd5b50505050600194505b841561137257857fddc4a2725cf1f8877f0f114cec8c98a237f9bc152a04b5805d6241fdfd496b4b8542600180604051808573ffffffffffffffffffffffffffffffffffffffff1673ffffffffffffffffffffffffffffffffffffffff168152602001848152602001831515151581526020018215151515815260200194505050505060405180910390a261134b60086000888152602001908152602001600020546040805190810160405280600381526020017f55524c00000000000000000000000000000000000000000000000000000000008152506020604051908101604052806000815250613868565b905085600f600083600019166000191681526020019081526020016000208190555061137c565b61137b86613621565b5b5b600f60008960001916600019168152602001908152602001600020600090555050505050505050565b60003373ffffffffffffffffffffffffffffffffffffffff16601060009054906101000a900473ffffffffffffffffffffffffffffffffffffffff1673ffffffffffffffffffffffffffffffffffffffff1614151561146d576040517f08c379a000000000000000000000000000000000000000000000000000000000815260040180806020018281038252601a8152602001807f4d73672073656e6465722069736e277420746865206f776e657200000000000081525060200191505060405180910390fd5b6000851115156114e5576040517f08c379a000000000000000000000000000000000000000000000000000000000815260040180806020018281038252601b8152602001807f416374696f6e2070726963652063616e6e6f74206265207a65726f000000000081525060200191505060405180910390fd5b606060405190810160405280878152602001670de0b6b3a76400008702815260200160011515815250600d6000600b548152602001908152602001600020600082015181600001908051906020019061153f929190614731565b506020820151816001015560408201518160030160006101000a81548160ff0219169083151502179055509050508360086000600b548152602001908152602001600020819055508260096000600b54815260200190815260200160002060006101000a81548160ff02191690831515021790555081600a6000600b54815260200190815260200160002060006101000a81548160ff021916908315150217905550600b547f259cce41447f493f2e316e75fbb88f4efed66d07c0dead3c1dfa7836a8cdd81387876040518080602001838152602001828103825284818151815260200191508051906020019080838360005b8381101561164d578082015181840152602081019050611632565b50505050905090810190601f16801561167a5780820380516001836020036101000a031916815260200191505b50935050505060405180910390a2600b600081548092919060010191905055506001905095945050505050565b60003373ffffffffffffffffffffffffffffffffffffffff16601060009054906101000a900473ffffffffffffffffffffffffffffffffffffffff1673ffffffffffffffffffffffffffffffffffffffff1614151561176e576040517f08c379a000000000000000000000000000000000000000000000000000000000815260040180806020018281038252601a8152602001807f4d73672073656e6465722069736e277420746865206f776e657200000000000081525060200191505060405180910390fd5b816009600085815260200190815260200160002060006101000a81548160ff0219169083151502179055506001905092915050565b505050565b6000600d600083815260200190815260200160002060030160009054906101000a900460ff169050919050565b6060600080600080600d6000878152602001908152602001600020600001600d6000888152602001908152602001600020600101546008600089815260200190815260200160002054600960008a815260200190815260200160002060009054906101000a900460ff16600a60008b815260200190815260200160002060009054906101000a900460ff16848054600181600116156101000203166002900480601f0160208091040260200160405190810160405280929190818152602001828054600181600116156101000203166002900480156118f55780601f106118ca576101008083540402835291602001916118f5565b820191906000526020600020905b8154815290600101906020018083116118d857829003601f168201915b505050505094509450945094509450945091939590929450565b6000600c6000838152602001908152602001600020549050919050565b600080600061193a84613e0a565b9150600d600085815260200190815260200160002060020160006001600c600088815260200190815260200160002054038152602001908152602001600020905060011515600d600086815260200190815260200160002060030160009054906101000a900460ff1615151480156119d6575060011515600a600086815260200190815260200160002060009054906101000a900460ff161515145b8015611a3157508060000160009054906101000a900473ffffffffffffffffffffffffffffffffffffffff1673ffffffffffffffffffffffffffffffffffffffff163373ffffffffffffffffffffffffffffffffffffffff16145b8015611a525750600115158160020160009054906101000a900460ff161515145b8015611a735750600115158160000160149054906101000a900460ff161515145b8015611a9a5750600081600101546008600087815260200190815260200160002054014203105b1515611b0e576040517f08c379a00000000000000000000000000000000000000000000000000000000081526004018080602001828103825260158152602001807f4661696c656420746f206175746f20726566756e64000000000000000000000081525060200191505060405180910390fd5b600560009054906101000a900473ffffffffffffffffffffffffffffffffffffffff1673ffffffffffffffffffffffffffffffffffffffff1663ac2ce9bc3033856040518463ffffffff167c0100000000000000000000000000000000000000000000000000000000028152600401808473ffffffffffffffffffffffffffffffffffffffff1673ffffffffffffffffffffffffffffffffffffffff1681526020018373ffffffffffffffffffffffffffffffffffffffff1673ffffffffffffffffffffffffffffffffffffffff1681526020018281526020019350505050600060405180830381600087803b158015611c0757600080fd5b505af1158015611c1b573d6000803e3d6000fd5b505050507f8392dd1994b5805073286c7466cefc588c77898d9b8a8cb59a02ed63811e09f484600d600087815260200190815260200160002060010154426000604051808581526020018481526020018381526020018215151515815260200194505050505060405180910390a15050919050565b60003373ffffffffffffffffffffffffffffffffffffffff16601060009054906101000a900473ffffffffffffffffffffffffffffffffffffffff1673ffffffffffffffffffffffffffffffffffffffff16141515611d57576040517f08c379a000000000000000000000000000000000000000000000000000000000815260040180806020018281038252601a8152602001807f4d73672073656e6465722069736e277420746865206f776e657200000000000081525060200191505060405180910390fd5b836008600087815260200190815260200160002081905550826009600087815260200190815260200160002060006101000a81548160ff02191690831515021790555081600a600087815260200190815260200160002060006101000a81548160ff02191690831515021790555060019050949350505050565b60003373ffffffffffffffffffffffffffffffffffffffff16601060009054906101000a900473ffffffffffffffffffffffffffffffffffffffff1673ffffffffffffffffffffffffffffffffffffffff16141515611e98576040517f08c379a000000000000000000000000000000000000000000000000000000000815260040180806020018281038252601a8152602001807f4d73672073656e6465722069736e277420746865206f776e657200000000000081525060200191505060405180910390fd5b60011515600d600085815260200190815260200160002060030160009054906101000a900460ff161515148015611ef3575060011515600a600085815260200190815260200160002060009054906101000a900460ff161515145b8015611f3a575060011515600d6000858152602001908152602001600020600201600084815260200190815260200160002060020160009054906101000a900460ff161515145b8015611f81575060001515600d6000858152602001908152602001600020600201600084815260200190815260200160002060000160159054906101000a900460ff161515145b151561201b576040517f08c379a00000000000000000000000000000000000000000000000000000000081526004018080602001828103825260288152602001807f526566756e64206d65726368616e74202d206661696c656420746f206973737581526020017f6520726566756e6400000000000000000000000000000000000000000000000081525060400191505060405180910390fd5b600560009054906101000a900473ffffffffffffffffffffffffffffffffffffffff1673ffffffffffffffffffffffffffffffffffffffff1663ac2ce9bc30600d6000878152602001908152602001600020600201600086815260200190815260200160002060000160009054906101000a900473ffffffffffffffffffffffffffffffffffffffff16600d6000888152602001908152602001600020600101546040518463ffffffff167c0100000000000000000000000000000000000000000000000000000000028152600401808473ffffffffffffffffffffffffffffffffffffffff1673ffffffffffffffffffffffffffffffffffffffff1681526020018373ffffffffffffffffffffffffffffffffffffffff1673ffffffffffffffffffffffffffffffffffffffff1681526020018281526020019350505050600060405180830381600087803b15801561217457600080fd5b505af1158015612188573d6000803e3d6000fd5b505050506000600d6000858152602001908152602001600020600201600084815260200190815260200160002060000160146101000a81548160ff0219169083151502179055506001600d6000858152602001908152602001600020600201600084815260200190815260200160002060000160156101000a81548160ff0219169083151502179055507f8392dd1994b5805073286c7466cefc588c77898d9b8a8cb59a02ed63811e09f483600d600086815260200190815260200160002060010154426000604051808581526020018481526020018381526020018215151515815260200194505050505060405180910390a192915050565b60008060011515600d600086815260200190815260200160002060030160009054906101000a900460ff16151514801561232b57506000600c600086815260200190815260200160002054148061232a575060001515600d600086815260200190815260200160002060020160006001600c60008981526020019081526020016000205403815260200190815260200160002060000160149054906101000a900460ff161515145b5b801561249f5750600d600085815260200190815260200160002060010154600560009054906101000a900473ffffffffffffffffffffffffffffffffffffffff1673ffffffffffffffffffffffffffffffffffffffff1663f8b2cb4f336040518263ffffffff167c0100000000000000000000000000000000000000000000000000000000028152600401808273ffffffffffffffffffffffffffffffffffffffff1673ffffffffffffffffffffffffffffffffffffffff168152602001915050602060405180830381600087803b15801561240657600080fd5b505af115801561241a573d6000803e3d6000fd5b505050506040513d602081101561243057600080fd5b810190808051906020019092919050505010158061249e57506000600e60003373ffffffffffffffffffffffffffffffffffffffff1673ffffffffffffffffffffffffffffffffffffffff168152602001908152602001600020600086815260200190815260200160002054115b5b80156124fe57506124e46040805190810160405280600381526020017f55524c0000000000000000000000000000000000000000000000000000000000815250613e9c565b3073ffffffffffffffffffffffffffffffffffffffff1631115b1515612572576040517f08c379a00000000000000000000000000000000000000000000000000000000081526004018080602001828103825260178152602001807f4661696c656420746f20656e61626c6520616374696f6e00000000000000000081525060200191505060405180910390fd5b6000600e60003373ffffffffffffffffffffffffffffffffffffffff1673ffffffffffffffffffffffffffffffffffffffff168152602001908152602001600020600086815260200190815260200160002054111561263157600e60003373ffffffffffffffffffffffffffffffffffffffff1673ffffffffffffffffffffffffffffffffffffffff16815260200190815260200160002060008581526020019081526020016000206000815480929190600190039190505550612759565b600560009054906101000a900473ffffffffffffffffffffffffffffffffffffffff1673ffffffffffffffffffffffffffffffffffffffff1663ac2ce9bc3330600d6000898152602001908152602001600020600101546040518463ffffffff167c0100000000000000000000000000000000000000000000000000000000028152600401808473ffffffffffffffffffffffffffffffffffffffff1673ffffffffffffffffffffffffffffffffffffffff1681526020018373ffffffffffffffffffffffffffffffffffffffff1673ffffffffffffffffffffffffffffffffffffffff1681526020018281526020019350505050600060405180830381600087803b15801561274057600080fd5b505af1158015612754573d6000803e3d6000fd5b505050505b60a0604051908101604052803373ffffffffffffffffffffffffffffffffffffffff16815260200160011515815260200160001515815260200142815260200160011515815250600d60008681526020019081526020016000206002016000600c600088815260200190815260200160002054815260200190815260200160002060008201518160000160006101000a81548173ffffffffffffffffffffffffffffffffffffffff021916908373ffffffffffffffffffffffffffffffffffffffff16021790555060208201518160000160146101000a81548160ff02191690831515021790555060408201518160000160156101000a81548160ff0219169083151502179055506060820151816001015560808201518160020160006101000a81548160ff021916908315150217905550905050837fddc4a2725cf1f8877f0f114cec8c98a237f9bc152a04b5805d6241fdfd496b4b334260006001604051808573ffffffffffffffffffffffffffffffffffffffff1673ffffffffffffffffffffffffffffffffffffffff168152602001848152602001831515151581526020018215151515815260200194505050505060405180910390a2600c60008581526020019081526020016000206000815480929190600101919050555061299a60086000868152602001908152602001600020546040805190810160405280600381526020017f55524c00000000000000000000000000000000000000000000000000000000008152506020604051908101604052806000815250613868565b905083600f6000836000191660001916815260200190815260200160002081905550600191505092915050565b6000600e60008473ffffffffffffffffffffffffffffffffffffffff1673ffffffffffffffffffffffffffffffffffffffff168152602001908152602001600020600083815260200190815260200160002054905092915050565b6000600d600083815260200190815260200160002060020160006001600c60008681526020019081526020016000205403815260200190815260200160002060000160149054906101000a900460ff169050919050565b600060011515600d600084815260200190815260200160002060030160009054906101000a900460ff161515148015612b03575060011515600d600084815260200190815260200160002060020160006001600c60008781526020019081526020016000205403815260200190815260200160002060000160149054906101000a900460ff161515145b8015612b9a57503373ffffffffffffffffffffffffffffffffffffffff16600d600084815260200190815260200160002060020160006001600c60008781526020019081526020016000205403815260200190815260200160002060000160009054906101000a900473ffffffffffffffffffffffffffffffffffffffff1673ffffffffffffffffffffffffffffffffffffffff16145b1515612ba557600080fd5b60a0604051908101604052803373ffffffffffffffffffffffffffffffffffffffff16815260200160001515815260200160001515815260200142815260200160011515815250600d60008481526020019081526020016000206002016000600c600086815260200190815260200160002054815260200190815260200160002060008201518160000160006101000a81548173ffffffffffffffffffffffffffffffffffffffff021916908373ffffffffffffffffffffffffffffffffffffffff16021790555060208201518160000160146101000a81548160ff02191690831515021790555060408201518160000160156101000a81548160ff0219169083151502179055506060820151816001015560808201518160020160006101000a81548160ff021916908315150217905550905050817fddc4a2725cf1f8877f0f114cec8c98a237f9bc152a04b5805d6241fdfd496b4b3342600080604051808573ffffffffffffffffffffffffffffffffffffffff1673ffffffffffffffffffffffffffffffffffffffff168152602001848152602001831515151581526020018215151515815260200194505050505060405180910390a2600c60008381526020019081526020016000206000815480929190600101919050555060019050919050565b60003373ffffffffffffffffffffffffffffffffffffffff16601060009054906101000a900473ffffffffffffffffffffffffffffffffffffffff1673ffffffffffffffffffffffffffffffffffffffff16141515612e52576040517f08c379a000000000000000000000000000000000000000000000000000000000815260040180806020018281038252601a8152602001807f4d73672073656e6465722069736e277420746865206f776e657200000000000081525060200191505060405180910390fd5b8160086000858152602001908152602001600020819055506001905092915050565b6000600560009054906101000a900473ffffffffffffffffffffffffffffffffffffffff1673ffffffffffffffffffffffffffffffffffffffff1663ac2ce9bc3330600d6000888152602001908152602001600020600101546040518463ffffffff167c0100000000000000000000000000000000000000000000000000000000028152600401808473ffffffffffffffffffffffffffffffffffffffff1673ffffffffffffffffffffffffffffffffffffffff1681526020018373ffffffffffffffffffffffffffffffffffffffff1673ffffffffffffffffffffffffffffffffffffffff1681526020018281526020019350505050600060405180830381600087803b158015612f8557600080fd5b505af1158015612f99573d6000803e3d6000fd5b5050505081600e60003373ffffffffffffffffffffffffffffffffffffffff1673ffffffffffffffffffffffffffffffffffffffff1681526020019081526020016000206000858152602001908152602001600020600082825401925050819055506001905092915050565b60003373ffffffffffffffffffffffffffffffffffffffff16601060009054906101000a900473ffffffffffffffffffffffffffffffffffffffff1673ffffffffffffffffffffffffffffffffffffffff161415156130cc576040517f08c379a000000000000000000000000000000000000000000000000000000000815260040180806020018281038252601a8152602001807f4d73672073656e6465722069736e277420746865206f776e657200000000000081525060200191505060405180910390fd5b81600d6000858152602001908152602001600020600101819055506001905092915050565b60003373ffffffffffffffffffffffffffffffffffffffff16601060009054906101000a900473ffffffffffffffffffffffffffffffffffffffff1673ffffffffffffffffffffffffffffffffffffffff161415156131b8576040517f08c379a000000000000000000000000000000000000000000000000000000000815260040180806020018281038252601a8152602001807f4d73672073656e6465722069736e277420746865206f776e657200000000000081525060200191505060405180910390fd5b60011515600d600084815260200190815260200160002060030160009054906101000a900460ff161515141515613257576040517f08c379a00000000000000000000000000000000000000000000000000000000081526004018080602001828103825260178152602001807f4661696c656420746f2064656c65746520616374696f6e00000000000000000081525060200191505060405180910390fd5b600d60008381526020019081526020016000206000808201600061327b91906147b1565b60018201600090556003820160006101000a81549060ff02191690555050600c60008381526020019081526020016000206000905560019050919050565b6000600b54905090565b6000806000809054906101000a900473ffffffffffffffffffffffffffffffffffffffff1673ffffffffffffffffffffffffffffffffffffffff161480613333575060006133316000809054906101000a900473ffffffffffffffffffffffffffffffffffffffff1661426c565b145b15613344576133426000614277565b505b6000809054906101000a900473ffffffffffffffffffffffffffffffffffffffff1673ffffffffffffffffffffffffffffffffffffffff166338cc48316040518163ffffffff167c0100000000000000000000000000000000000000000000000000000000028152600401602060405180830381600087803b1580156133c957600080fd5b505af11580156133dd573d6000803e3d6000fd5b505050506040513d60208110156133f357600080fd5b810190808051906020019092919050505073ffffffffffffffffffffffffffffffffffffffff16600160009054906101000a900473ffffffffffffffffffffffffffffffffffffffff1673ffffffffffffffffffffffffffffffffffffffff1614151561355b576000809054906101000a900473ffffffffffffffffffffffffffffffffffffffff1673ffffffffffffffffffffffffffffffffffffffff166338cc48316040518163ffffffff167c0100000000000000000000000000000000000000000000000000000000028152600401602060405180830381600087803b1580156134df57600080fd5b505af11580156134f3573d6000803e3d6000fd5b505050506040513d602081101561350957600080fd5b8101908080519060200190929190505050600160006101000a81548173ffffffffffffffffffffffffffffffffffffffff021916908373ffffffffffffffffffffffffffffffffffffffff1602179055505b600160009054906101000a900473ffffffffffffffffffffffffffffffffffffffff1673ffffffffffffffffffffffffffffffffffffffff1663c281d19e6040518163ffffffff167c0100000000000000000000000000000000000000000000000000000000028152600401602060405180830381600087803b1580156135e157600080fd5b505af11580156135f5573d6000803e3d6000fd5b505050506040513d602081101561360b57600080fd5b8101908080519060200190929190505050905090565b6000600d600083815260200190815260200160002060020160006001600c600086815260200190815260200160002054038152602001908152602001600020905060a0604051908101604052808260000160009054906101000a900473ffffffffffffffffffffffffffffffffffffffff1673ffffffffffffffffffffffffffffffffffffffff16815260200160001515815260200160001515815260200142815260200160011515815250600d60008481526020019081526020016000206002016000600c600086815260200190815260200160002054815260200190815260200160002060008201518160000160006101000a81548173ffffffffffffffffffffffffffffffffffffffff021916908373ffffffffffffffffffffffffffffffffffffffff16021790555060208201518160000160146101000a81548160ff02191690831515021790555060408201518160000160156101000a81548160ff0219169083151502179055506060820151816001015560808201518160020160006101000a81548160ff021916908315150217905550905050817fddc4a2725cf1f8877f0f114cec8c98a237f9bc152a04b5805d6241fdfd496b4b334260016000604051808573ffffffffffffffffffffffffffffffffffffffff1673ffffffffffffffffffffffffffffffffffffffff168152602001848152602001831515151581526020018215151515815260200194505050505060405180910390a2600c6000838152602001908152602001600020600081548092919060010191905055505050565b60008060008060009054906101000a900473ffffffffffffffffffffffffffffffffffffffff1673ffffffffffffffffffffffffffffffffffffffff1614806138da575060006138d86000809054906101000a900473ffffffffffffffffffffffffffffffffffffffff1661426c565b145b156138eb576138e96000614277565b505b6000809054906101000a900473ffffffffffffffffffffffffffffffffffffffff1673ffffffffffffffffffffffffffffffffffffffff166338cc48316040518163ffffffff167c0100000000000000000000000000000000000000000000000000000000028152600401602060405180830381600087803b15801561397057600080fd5b505af1158015613984573d6000803e3d6000fd5b505050506040513d602081101561399a57600080fd5b810190808051906020019092919050505073ffffffffffffffffffffffffffffffffffffffff16600160009054906101000a900473ffffffffffffffffffffffffffffffffffffffff1673ffffffffffffffffffffffffffffffffffffffff16141515613b02576000809054906101000a900473ffffffffffffffffffffffffffffffffffffffff1673ffffffffffffffffffffffffffffffffffffffff166338cc48316040518163ffffffff167c0100000000000000000000000000000000000000000000000000000000028152600401602060405180830381600087803b158015613a8657600080fd5b505af1158015613a9a573d6000803e3d6000fd5b505050506040513d6020811015613ab057600080fd5b8101908080519060200190929190505050600160006101000a81548173ffffffffffffffffffffffffffffffffffffffff021916908373ffffffffffffffffffffffffffffffffffffffff1602179055505b600160009054906101000a900473ffffffffffffffffffffffffffffffffffffffff1673ffffffffffffffffffffffffffffffffffffffff1663524f3889856040518263ffffffff167c01000000000000000000000000000000000000000000000000000000000281526004018080602001828103825283818151815260200191508051906020019080838360005b83811015613bac578082015181840152602081019050613b91565b50505050905090810190601f168015613bd95780820380516001836020036101000a031916815260200191505b5092505050602060405180830381600087803b158015613bf857600080fd5b505af1158015613c0c573d6000803e3d6000fd5b505050506040513d6020811015613c2257600080fd5b8101908080519060200190929190505050905062030d403a02670de0b6b3a764000001811115613c585760006001029150613e02565b600160009054906101000a900473ffffffffffffffffffffffffffffffffffffffff1673ffffffffffffffffffffffffffffffffffffffff1663adf59f99828787876040518563ffffffff167c0100000000000000000000000000000000000000000000000000000000028152600401808481526020018060200180602001838103835285818151815260200191508051906020019080838360005b83811015613d0f578082015181840152602081019050613cf4565b50505050905090810190601f168015613d3c5780820380516001836020036101000a031916815260200191505b50838103825284818151815260200191508051906020019080838360005b83811015613d75578082015181840152602081019050613d5a565b50505050905090810190601f168015613da25780820380516001836020036101000a031916815260200191505b50955050505050506020604051808303818588803b158015613dc357600080fd5b505af1158015613dd7573d6000803e3d6000fd5b50505050506040513d6020811015613dee57600080fd5b810190808051906020019092919050505091505b509392505050565b600080600080600d600086815260200190815260200160002060010154925060086000868152602001908152602001600020549150600d600086815260200190815260200160002060020160006001600c600089815260200190815260200160002054038152602001908152602001600020600101544203905081838202811515613e9157fe5b049350505050919050565b6000806000809054906101000a900473ffffffffffffffffffffffffffffffffffffffff1673ffffffffffffffffffffffffffffffffffffffff161480613f0c57506000613f0a6000809054906101000a900473ffffffffffffffffffffffffffffffffffffffff1661426c565b145b15613f1d57613f1b6000614277565b505b6000809054906101000a900473ffffffffffffffffffffffffffffffffffffffff1673ffffffffffffffffffffffffffffffffffffffff166338cc48316040518163ffffffff167c0100000000000000000000000000000000000000000000000000000000028152600401602060405180830381600087803b158015613fa257600080fd5b505af1158015613fb6573d6000803e3d6000fd5b505050506040513d6020811015613fcc57600080fd5b810190808051906020019092919050505073ffffffffffffffffffffffffffffffffffffffff16600160009054906101000a900473ffffffffffffffffffffffffffffffffffffffff1673ffffffffffffffffffffffffffffffffffffffff16141515614134576000809054906101000a900473ffffffffffffffffffffffffffffffffffffffff1673ffffffffffffffffffffffffffffffffffffffff166338cc48316040518163ffffffff167c0100000000000000000000000000000000000000000000000000000000028152600401602060405180830381600087803b1580156140b857600080fd5b505af11580156140cc573d6000803e3d6000fd5b505050506040513d60208110156140e257600080fd5b8101908080519060200190929190505050600160006101000a81548173ffffffffffffffffffffffffffffffffffffffff021916908373ffffffffffffffffffffffffffffffffffffffff1602179055505b600160009054906101000a900473ffffffffffffffffffffffffffffffffffffffff1673ffffffffffffffffffffffffffffffffffffffff1663524f3889836040518263ffffffff167c01000000000000000000000000000000000000000000000000000000000281526004018080602001828103825283818151815260200191508051906020019080838360005b838110156141de5780820151818401526020810190506141c3565b50505050905090810190601f16801561420b5780820380516001836020036101000a031916815260200191505b5092505050602060405180830381600087803b15801561422a57600080fd5b505af115801561423e573d6000803e3d6000fd5b505050506040513d602081101561425457600080fd5b81019080805190602001909291905050509050919050565b6000813b9050919050565b6000614281614288565b9050919050565b6000806142a8731d3b2638a7cc9f2cb3d298a3da7a90b67e5506ed61426c565b111561434957731d3b2638a7cc9f2cb3d298a3da7a90b67e5506ed6000806101000a81548173ffffffffffffffffffffffffffffffffffffffff021916908373ffffffffffffffffffffffffffffffffffffffff1602179055506143406040805190810160405280600b81526020017f6574685f6d61696e6e6574000000000000000000000000000000000000000000815250614717565b60019050614714565b600061436873c03a2615d5efaf5f49f60b7bb6583eaec212fdf161426c565b11156144095773c03a2615d5efaf5f49f60b7bb6583eaec212fdf16000806101000a81548173ffffffffffffffffffffffffffffffffffffffff021916908373ffffffffffffffffffffffffffffffffffffffff1602179055506144006040805190810160405280600c81526020017f6574685f726f707374656e330000000000000000000000000000000000000000815250614717565b60019050614714565b600061442873b7a07bcf2ba2f2703b24c0691b5278999c59ac7e61426c565b11156144c95773b7a07bcf2ba2f2703b24c0691b5278999c59ac7e6000806101000a81548173ffffffffffffffffffffffffffffffffffffffff021916908373ffffffffffffffffffffffffffffffffffffffff1602179055506144c06040805190810160405280600981526020017f6574685f6b6f76616e0000000000000000000000000000000000000000000000815250614717565b60019050614714565b60006144e873146500cfd35b22e4a392fe0adc06de1a1368ed4861426c565b11156145895773146500cfd35b22e4a392fe0adc06de1a1368ed486000806101000a81548173ffffffffffffffffffffffffffffffffffffffff021916908373ffffffffffffffffffffffffffffffffffffffff1602179055506145806040805190810160405280600b81526020017f6574685f72696e6b656279000000000000000000000000000000000000000000815250614717565b60019050614714565b60006145a8736f485c8bf6fc43ea212e93bbf8ce046c7f1cb47561426c565b111561460b57736f485c8bf6fc43ea212e93bbf8ce046c7f1cb4756000806101000a81548173ffffffffffffffffffffffffffffffffffffffff021916908373ffffffffffffffffffffffffffffffffffffffff16021790555060019050614714565b600061462a7320e12a1f859b3feae5fb2a0a32c18f5a65555bbf61426c565b111561468d577320e12a1f859b3feae5fb2a0a32c18f5a65555bbf6000806101000a81548173ffffffffffffffffffffffffffffffffffffffff021916908373ffffffffffffffffffffffffffffffffffffffff16021790555060019050614714565b60006146ac7351efaf4c8b3c9afbd5ab9f4bbc82784ab6ef8faa61426c565b111561470f577351efaf4c8b3c9afbd5ab9f4bbc82784ab6ef8faa6000806101000a81548173ffffffffffffffffffffffffffffffffffffffff021916908373ffffffffffffffffffffffffffffffffffffffff16021790555060019050614714565b600090505b90565b806002908051906020019061472d9291906147f9565b5050565b828054600181600116156101000203166002900490600052602060002090601f016020900481019282601f1061477257805160ff19168380011785556147a0565b828001600101855582156147a0579182015b8281111561479f578251825591602001919060010190614784565b5b5090506147ad9190614879565b5090565b50805460018160011615610100020316600290046000825580601f106147d757506147f6565b601f0160209004906000526020600020908101906147f59190614879565b5b50565b828054600181600116156101000203166002900490600052602060002090601f016020900481019282601f1061483a57805160ff1916838001178555614868565b82800160010185558215614868579182015b8281111561486757825182559160200191906001019061484c565b5b5090506148759190614879565b5090565b61489b91905b8082111561489757600081600090555060010161487f565b5090565b905600a165627a7a72305820626e7269e6de73ffa83c1e39f4781dda5422f52ec228c08b41ed0d32daa2765c0029a165627a7a72305820bfc165a4d788b97f9b0fe2b68a68b8c4486edf6f33e0b2a9607dd95da15063cf0029",
  "source": "pragma solidity ^0.4.24;\n\nimport \"./Device.sol\";\n\ncontract DeviceSpawner {\n    address private rawbot_address;\n\n    mapping(uint256 => address) private devices;\n    mapping(uint256 => address) private merchants;\n    mapping(address => bool) private devices_access;\n\n    uint256 private total_devices = 0;\n    uint256 private total_merchants = 0;\n\n    mapping(address => Merchant) private merchant;\n    mapping(address => DeviceInfo) private infoOf;\n    mapping(address => uint256) private total_devices_of;\n\n\n    struct Merchant {\n        mapping(uint256 => address) devices;\n        bool available;\n    }\n\n    event DeviceAdd(\n        address _rawbot_address,\n        address _sender,\n        address _contract\n    );\n\n    struct DeviceInfo {\n        bytes32 serial_number;\n        bytes32 name;\n        address owner;\n        bytes32 owner_name;\n        address manager;\n        bytes32 country;\n        bytes32 location;\n        uint256 latitude;\n        uint256 longitude;\n        uint256 altitude;\n        uint256 accuracy;\n        bool available;\n    }\n\n    constructor(address _input_address) public payable {\n        rawbot_address = _input_address;\n    }\n\n    function getRawbotAddress() public view returns (address _rawbot_address){\n        return rawbot_address;\n    }\n\n    function addDevice(\n        address _manager,\n        bytes32 _device_serial_number,\n        bytes32 _device_name,\n        bytes32 _owner_name,\n        bytes32 _country,\n        bytes32 _location,\n        uint256 _latitude,\n        uint256 _longitude,\n        uint256 _altitude,\n        uint256 _accuracy\n    ) public returns (Device __spawned_device) {\n        Device device = new Device(msg.sender, rawbot_address);\n        infoOf[device] = DeviceInfo(\n            _device_serial_number,\n            _device_name,\n            msg.sender,\n            _owner_name,\n            _manager,\n            _country,\n            _location,\n            _latitude,\n            _longitude,\n            _altitude,\n            _accuracy,\n            true\n        );\n\n        if (merchant[msg.sender].available == false) {\n            merchants[total_merchants] = msg.sender;\n            merchant[msg.sender].available = true;\n            total_merchants++;\n        }\n\n        uint256 total_user_devices = total_devices_of[msg.sender];\n        merchant[msg.sender].devices[total_user_devices] = device;\n        devices[total_devices] = device;\n\n        total_devices++;\n        total_devices_of[msg.sender]++;\n        emit DeviceAdd(rawbot_address, msg.sender, device);\n        return device;\n    }\n\n    function getTotalDevices() public view returns (uint256 __total_devices) {\n        return total_devices;\n    }\n\n    function getTotalMerchants() public view returns (uint256 __total_merchants){\n        return total_merchants;\n    }\n\n    function getTotalDevicesOf(address _address) public view returns (uint256 __total_devices_of){\n        return total_devices_of[_address];\n    }\n\n    function getDevice(uint256 _device_index) public view returns (address __device_address){\n        return devices[_device_index];\n    }\n\n    function getDeviceAddressOf(address _merchant_address, uint256 _device_index) public view returns (address __device_address){\n        return merchant[_merchant_address].devices[_device_index];\n    }\n\n    function hasAccess(address _address) external view returns (bool __allowed){\n        return infoOf[_address].available;\n    }\n\n    /**\n        Device information\n    **/\n\n    function getContractBalance() public view returns (uint256 __balance){\n        return address(this).balance;\n    }\n\n    function getDeviceOwner(address device_address) public view returns (address __device_owner) {\n        return infoOf[device_address].owner;\n    }\n\n    function getDeviceManager(address device_address) public view returns (address __device_manager) {\n        return infoOf[device_address].manager;\n    }\n\n    function getDeviceBalance(address device_address) public view returns (uint256 __device_balance){\n        return address(device_address).balance;\n    }\n\n    function setDeviceManager(address device_address, address device_manager) public returns (bool success){\n        require(getDeviceOwner(device_address) == msg.sender, \"Msg sender isn't the owner.\");\n        infoOf[device_address].manager = device_manager;\n        return true;\n    }\n\n    function getDeviceInformation(address device_address)\n    public view\n    returns (\n        bytes32 serial_number,\n        bytes32 name,\n        address owner,\n        bytes32 owner_name,\n        bytes32 country,\n        bytes32 location,\n        uint256 latitude,\n        uint256 longitude,\n        uint256 altitude,\n        uint256 accuracy\n    )\n    {\n        DeviceInfo info = infoOf[device_address];\n        return (\n        info.serial_number,\n        info.name,\n        info.owner,\n        info.owner_name,\n        info.country,\n        info.location,\n        info.latitude,\n        info.longitude,\n        info.altitude,\n        info.accuracy\n        );\n    }\n}",
  "sourcePath": "/Users/hassanjawhar/Desktop/Workspace/rawbot/contracts/DeviceSpawner.sol",
  "compiler": {
    "name": "solc",
    "version": "0.4.24+commit.e67f0147.Emscripten.clang"
  },
  "schemaVersion": "2.0.1",
  "updatedAt": "2018-10-09T07:56:57.788Z"
}